{
  "contractName": "ProjectCreation",
  "abi": [
    {
      "inputs": [],
      "stateMutability": "nonpayable",
      "type": "constructor"
    },
    {
      "inputs": [],
      "name": "projectCount",
      "outputs": [
        {
          "internalType": "uint256",
          "name": "",
          "type": "uint256"
        }
      ],
      "stateMutability": "view",
      "type": "function",
      "constant": true
    },
    {
      "inputs": [
        {
          "internalType": "uint256",
          "name": "",
          "type": "uint256"
        }
      ],
      "name": "projects",
      "outputs": [
        {
          "internalType": "uint256",
          "name": "id",
          "type": "uint256"
        },
        {
          "internalType": "string",
          "name": "title",
          "type": "string"
        },
        {
          "internalType": "string",
          "name": "description",
          "type": "string"
        },
        {
          "internalType": "address payable",
          "name": "projectOwner",
          "type": "address"
        },
        {
          "internalType": "uint256",
          "name": "totalDonations",
          "type": "uint256"
        }
      ],
      "stateMutability": "view",
      "type": "function",
      "constant": true
    },
    {
      "inputs": [
        {
          "internalType": "string",
          "name": "_title",
          "type": "string"
        },
        {
          "internalType": "string",
          "name": "_description",
          "type": "string"
        }
      ],
      "name": "createProject",
      "outputs": [],
      "stateMutability": "nonpayable",
      "type": "function"
    },
    {
      "inputs": [
        {
          "internalType": "uint256",
          "name": "_projectId",
          "type": "uint256"
        }
      ],
      "name": "donate",
      "outputs": [],
      "stateMutability": "payable",
      "type": "function",
      "payable": true
    },
    {
      "inputs": [
        {
          "internalType": "uint256",
          "name": "_projectId",
          "type": "uint256"
        },
        {
          "internalType": "address",
          "name": "_donorAddress",
          "type": "address"
        }
      ],
      "name": "getDonor",
      "outputs": [
        {
          "internalType": "address",
          "name": "",
          "type": "address"
        },
        {
          "internalType": "uint256",
          "name": "",
          "type": "uint256"
        }
      ],
      "stateMutability": "view",
      "type": "function",
      "constant": true
    },
    {
      "inputs": [
        {
          "internalType": "uint256",
          "name": "_projectId",
          "type": "uint256"
        }
      ],
      "name": "getTotalDonations",
      "outputs": [
        {
          "internalType": "uint256",
          "name": "",
          "type": "uint256"
        }
      ],
      "stateMutability": "view",
      "type": "function",
      "constant": true
    },
    {
      "inputs": [
        {
          "internalType": "uint256",
          "name": "_projectId",
          "type": "uint256"
        },
        {
          "internalType": "uint256",
          "name": "_index",
          "type": "uint256"
        }
      ],
      "name": "getDonorByIndex",
      "outputs": [
        {
          "internalType": "address",
          "name": "",
          "type": "address"
        },
        {
          "internalType": "uint256",
          "name": "",
          "type": "uint256"
        }
      ],
      "stateMutability": "view",
      "type": "function",
      "constant": true
    },
    {
      "inputs": [
        {
          "internalType": "uint256",
          "name": "_projectId",
          "type": "uint256"
        }
      ],
      "name": "getDonorCount",
      "outputs": [
        {
          "internalType": "uint256",
          "name": "",
          "type": "uint256"
        }
      ],
      "stateMutability": "view",
      "type": "function",
      "constant": true
    }
  ],
  "bytecode": "0x608060405234801561001057600080fd5b506000600181905550611479806100286000396000f3fe60806040526004361061007b5760003560e01c8063bc36ec8b1161004e578063bc36ec8b14610152578063d0e5a74314610190578063e38d8774146101ce578063f14faf6f1461020b5761007b565b8063107046bd1461008057806336fbad26146100c15780635943c705146100ec5780636bd0620414610129575b600080fd5b34801561008c57600080fd5b506100a760048036038101906100a29190610b1b565b610227565b6040516100b8959493929190610c28565b60405180910390f35b3480156100cd57600080fd5b506100d661038d565b6040516100e39190610c89565b60405180910390f35b3480156100f857600080fd5b50610113600480360381019061010e9190610b1b565b610393565b6040516101209190610c89565b60405180910390f35b34801561013557600080fd5b50610150600480360381019061014b9190610dd9565b6103f9565b005b34801561015e57600080fd5b5061017960048036038101906101749190610e51565b6104a0565b604051610187929190610eb2565b60405180910390f35b34801561019c57600080fd5b506101b760048036038101906101b29190610f07565b6105fa565b6040516101c5929190610eb2565b60405180910390f35b3480156101da57600080fd5b506101f560048036038101906101f09190610b1b565b610718565b6040516102029190610c89565b60405180910390f35b61022560048036038101906102209190610b1b565b61077b565b005b600060205280600052604060002060009150905080600001549080600101805461025090610f76565b80601f016020809104026020016040519081016040528092919081815260200182805461027c90610f76565b80156102c95780601f1061029e576101008083540402835291602001916102c9565b820191906000526020600020905b8154815290600101906020018083116102ac57829003601f168201915b5050505050908060020180546102de90610f76565b80601f016020809104026020016040519081016040528092919081815260200182805461030a90610f76565b80156103575780601f1061032c57610100808354040283529160200191610357565b820191906000526020600020905b81548152906001019060200180831161033a57829003601f168201915b5050505050908060030160009054906101000a900473ffffffffffffffffffffffffffffffffffffffff16908060070154905085565b60015481565b600060015482106103d9576040517f08c379a00000000000000000000000000000000000000000000000000000000081526004016103d090610ff3565b60405180910390fd5b600080838152602001908152602001600020600501805490509050919050565b60008060006001548152602001908152602001600020905060015481600001819055508281600101908161042d91906111bf565b508181600201908161043f91906111bf565b50338160030160006101000a81548173ffffffffffffffffffffffffffffffffffffffff021916908373ffffffffffffffffffffffffffffffffffffffff16021790555060016000815480929190610496906112c0565b9190505550505050565b60008060015484106104e7576040517f08c379a00000000000000000000000000000000000000000000000000000000081526004016104de90610ff3565b60405180910390fd5b600080858152602001908152602001600020600501805490508310610541576040517f08c379a000000000000000000000000000000000000000000000000000000000815260040161053890611354565b60405180910390fd5b6000806000868152602001908152602001600020600501848154811061056a57610569611374565b5b9060005260206000200160009054906101000a900473ffffffffffffffffffffffffffffffffffffffff1690508060008087815260200190815260200160002060040160008373ffffffffffffffffffffffffffffffffffffffff1673ffffffffffffffffffffffffffffffffffffffff1681526020019081526020016000206001015492509250509250929050565b6000806001548410610641576040517f08c379a000000000000000000000000000000000000000000000000000000000815260040161063890610ff3565b60405180910390fd5b60008085815260200190815260200160002060040160008473ffffffffffffffffffffffffffffffffffffffff1673ffffffffffffffffffffffffffffffffffffffff16815260200190815260200160002060000160009054906101000a900473ffffffffffffffffffffffffffffffffffffffff1660008086815260200190815260200160002060040160008573ffffffffffffffffffffffffffffffffffffffff1673ffffffffffffffffffffffffffffffffffffffff16815260200190815260200160002060010154915091509250929050565b6000600154821061075e576040517f08c379a000000000000000000000000000000000000000000000000000000000815260040161075590610ff3565b60405180910390fd5b600080838152602001908152602001600020600701549050919050565b60015481106107bf576040517f08c379a00000000000000000000000000000000000000000000000000000000081526004016107b690610ff3565b60405180910390fd5b600073ffffffffffffffffffffffffffffffffffffffff1660008083815260200190815260200160002060040160003373ffffffffffffffffffffffffffffffffffffffff1673ffffffffffffffffffffffffffffffffffffffff16815260200190815260200160002060000160009054906101000a900473ffffffffffffffffffffffffffffffffffffffff1673ffffffffffffffffffffffffffffffffffffffff16146108a3576040517f08c379a000000000000000000000000000000000000000000000000000000000815260040161089a906113ef565b60405180910390fd5b60008082815260200190815260200160002060030160009054906101000a900473ffffffffffffffffffffffffffffffffffffffff1673ffffffffffffffffffffffffffffffffffffffff166108fc349081150290604051600060405180830381858888f1935050505015801561091e573d6000803e3d6000fd5b5060405180604001604052803373ffffffffffffffffffffffffffffffffffffffff1681526020013481525060008083815260200190815260200160002060040160003373ffffffffffffffffffffffffffffffffffffffff1673ffffffffffffffffffffffffffffffffffffffff16815260200190815260200160002060008201518160000160006101000a81548173ffffffffffffffffffffffffffffffffffffffff021916908373ffffffffffffffffffffffffffffffffffffffff16021790555060208201518160010155905050600080828152602001908152602001600020600501339080600181540180825580915050600190039060005260206000200160009091909190916101000a81548173ffffffffffffffffffffffffffffffffffffffff021916908373ffffffffffffffffffffffffffffffffffffffff160217905550600080828152602001908152602001600020600601349080600181540180825580915050600190039060005260206000200160009091909190915055346000808381526020019081526020016000206007016000828254610ac7919061140f565b9250508190555050565b6000604051905090565b600080fd5b600080fd5b6000819050919050565b610af881610ae5565b8114610b0357600080fd5b50565b600081359050610b1581610aef565b92915050565b600060208284031215610b3157610b30610adb565b5b6000610b3f84828501610b06565b91505092915050565b610b5181610ae5565b82525050565b600081519050919050565b600082825260208201905092915050565b60005b83811015610b91578082015181840152602081019050610b76565b60008484015250505050565b6000601f19601f8301169050919050565b6000610bb982610b57565b610bc38185610b62565b9350610bd3818560208601610b73565b610bdc81610b9d565b840191505092915050565b600073ffffffffffffffffffffffffffffffffffffffff82169050919050565b6000610c1282610be7565b9050919050565b610c2281610c07565b82525050565b600060a082019050610c3d6000830188610b48565b8181036020830152610c4f8187610bae565b90508181036040830152610c638186610bae565b9050610c726060830185610c19565b610c7f6080830184610b48565b9695505050505050565b6000602082019050610c9e6000830184610b48565b92915050565b600080fd5b600080fd5b7f4e487b7100000000000000000000000000000000000000000000000000000000600052604160045260246000fd5b610ce682610b9d565b810181811067ffffffffffffffff82111715610d0557610d04610cae565b5b80604052505050565b6000610d18610ad1565b9050610d248282610cdd565b919050565b600067ffffffffffffffff821115610d4457610d43610cae565b5b610d4d82610b9d565b9050602081019050919050565b82818337600083830152505050565b6000610d7c610d7784610d29565b610d0e565b905082815260208101848484011115610d9857610d97610ca9565b5b610da3848285610d5a565b509392505050565b600082601f830112610dc057610dbf610ca4565b5b8135610dd0848260208601610d69565b91505092915050565b60008060408385031215610df057610def610adb565b5b600083013567ffffffffffffffff811115610e0e57610e0d610ae0565b5b610e1a85828601610dab565b925050602083013567ffffffffffffffff811115610e3b57610e3a610ae0565b5b610e4785828601610dab565b9150509250929050565b60008060408385031215610e6857610e67610adb565b5b6000610e7685828601610b06565b9250506020610e8785828601610b06565b9150509250929050565b6000610e9c82610be7565b9050919050565b610eac81610e91565b82525050565b6000604082019050610ec76000830185610ea3565b610ed46020830184610b48565b9392505050565b610ee481610e91565b8114610eef57600080fd5b50565b600081359050610f0181610edb565b92915050565b60008060408385031215610f1e57610f1d610adb565b5b6000610f2c85828601610b06565b9250506020610f3d85828601610ef2565b9150509250929050565b7f4e487b7100000000000000000000000000000000000000000000000000000000600052602260045260246000fd5b60006002820490506001821680610f8e57607f821691505b602082108103610fa157610fa0610f47565b5b50919050565b7f496e76616c69642070726f6a6563742069640000000000000000000000000000600082015250565b6000610fdd601283610b62565b9150610fe882610fa7565b602082019050919050565b6000602082019050818103600083015261100c81610fd0565b9050919050565b60008190508160005260206000209050919050565b60006020601f8301049050919050565b600082821b905092915050565b6000600883026110757fffffffffffffffffffffffffffffffffffffffffffffffffffffffffffffffff82611038565b61107f8683611038565b95508019841693508086168417925050509392505050565b6000819050919050565b60006110bc6110b76110b284610ae5565b611097565b610ae5565b9050919050565b6000819050919050565b6110d6836110a1565b6110ea6110e2826110c3565b848454611045565b825550505050565b600090565b6110ff6110f2565b61110a8184846110cd565b505050565b5b8181101561112e576111236000826110f7565b600181019050611110565b5050565b601f8211156111735761114481611013565b61114d84611028565b8101602085101561115c578190505b61117061116885611028565b83018261110f565b50505b505050565b600082821c905092915050565b600061119660001984600802611178565b1980831691505092915050565b60006111af8383611185565b9150826002028217905092915050565b6111c882610b57565b67ffffffffffffffff8111156111e1576111e0610cae565b5b6111eb8254610f76565b6111f6828285611132565b600060209050601f8311600181146112295760008415611217578287015190505b61122185826111a3565b865550611289565b601f19841661123786611013565b60005b8281101561125f5784890151825560018201915060208501945060208101905061123a565b8683101561127c5784890151611278601f891682611185565b8355505b6001600288020188555050505b505050505050565b7f4e487b7100000000000000000000000000000000000000000000000000000000600052601160045260246000fd5b60006112cb82610ae5565b91507fffffffffffffffffffffffffffffffffffffffffffffffffffffffffffffffff82036112fd576112fc611291565b5b600182019050919050565b7f496e76616c696420696e64657800000000000000000000000000000000000000600082015250565b600061133e600d83610b62565b915061134982611308565b602082019050919050565b6000602082019050818103600083015261136d81611331565b9050919050565b7f4e487b7100000000000000000000000000000000000000000000000000000000600052603260045260246000fd5b7f446f6e6f722063616e206f6e6c7920646f6e617465206f6e6365000000000000600082015250565b60006113d9601a83610b62565b91506113e4826113a3565b602082019050919050565b60006020820190508181036000830152611408816113cc565b9050919050565b600061141a82610ae5565b915061142583610ae5565b925082820190508082111561143d5761143c611291565b5b9291505056fea2646970667358221220d33ebf1ca76c22ad2e2a0b77c2435631744d3f88d6fe7a187be59926c71b490d64736f6c63430008130033",
  "immutableReferences": {},
  "source": "// SPDX-License-Identifier: MIT\r\n\r\npragma solidity ^0.8.8;\r\n\r\ncontract ProjectCreation {\r\n    struct Donor {\r\n        address donorAddress;\r\n        uint amountDonated;\r\n    }\r\n\r\n    struct Project {\r\n        uint id;\r\n        string title;\r\n        string description;\r\n        address payable projectOwner;\r\n        mapping(address => Donor) donors;\r\n        address [] DonorAdresses;\r\n        uint [] DonorAmount;\r\n        uint totalDonations;\r\n    }\r\n\r\n    mapping(uint => Project) public projects;\r\n    uint public projectCount;\r\n\r\n    constructor() {\r\n        projectCount = 0;\r\n    }\r\n\r\n    function createProject(string memory _title, string memory _description) external {\r\n        Project storage project = projects[projectCount];\r\n        project.id = projectCount;\r\n        project.title = _title;\r\n        project.description = _description;\r\n        project.projectOwner = payable(msg.sender);\r\n        projectCount++;\r\n    }\r\n\r\n    function donate(uint _projectId) external payable {\r\n        require(_projectId < projectCount, \"Invalid project id\");\r\n        require(projects[_projectId].donors[msg.sender].donorAddress == address(0), \"Donor can only donate once\");\r\n\r\n        // Transfer the funds to project owner directly\r\n        projects[_projectId].projectOwner.transfer(msg.value);\r\n\r\n        // Save the donor's information\r\n        projects[_projectId].donors[msg.sender] = Donor(msg.sender, msg.value);\r\n        projects[_projectId].DonorAdresses.push(msg.sender);\r\n        projects[_projectId].DonorAmount.push(msg.value);\r\n        \r\n        \r\n        // Update total donations\r\n        projects[_projectId].totalDonations += msg.value;\r\n    }\r\n\r\n    function getDonor(uint _projectId, address _donorAddress) external view returns (address, uint) {\r\n        require(_projectId < projectCount, \"Invalid project id\");\r\n        return (projects[_projectId].donors[_donorAddress].donorAddress, projects[_projectId].donors[_donorAddress].amountDonated);\r\n    }\r\n\r\n    function getTotalDonations(uint _projectId) external view returns (uint) {\r\n        require(_projectId < projectCount, \"Invalid project id\");\r\n        return projects[_projectId].totalDonations;\r\n    }\r\n\r\n    function getDonorByIndex(uint _projectId, uint _index) public view returns (address, uint) {\r\n    require(_projectId < projectCount, \"Invalid project id\");\r\n    require(_index < projects[_projectId].DonorAdresses.length, \"Invalid index\");\r\n\r\n    address donorAddress = projects[_projectId].DonorAdresses[_index];\r\n    return (donorAddress, projects[_projectId].donors[donorAddress].amountDonated);\r\n}\r\n\r\nfunction getDonorCount(uint _projectId) public view returns (uint) {\r\n    require(_projectId < projectCount, \"Invalid project id\");\r\n    return projects[_projectId].DonorAdresses.length;\r\n}\r\n\r\n\r\n\r\n}\r\n",
  "sourcePath": "C:\\Users\\Cheddad\\Desktop\\Blockchain-solidity-Application-javascript\\contracts\\ProjectCreation.sol",
  "compiler": {
    "name": "solc",
    "version": "0.8.19+commit.7dd6d404.Emscripten.clang"
  },
  "schemaVersion": "3.4.14",
  "updatedAt": "2023-06-12T16:26:24.532Z",
  "networkType": "ethereum",
  "devdoc": {
    "kind": "dev",
    "methods": {},
    "version": 1
  },
  "userdoc": {
    "kind": "user",
    "methods": {},
    "version": 1
  }
}