{
  "contractName": "ProjectCreation",
  "abi": [
    {
      "inputs": [],
      "stateMutability": "nonpayable",
      "type": "constructor"
    },
    {
      "inputs": [],
      "name": "projectCount",
      "outputs": [
        {
          "internalType": "uint256",
          "name": "",
          "type": "uint256"
        }
      ],
      "stateMutability": "view",
      "type": "function",
      "constant": true
    },
    {
      "inputs": [
        {
          "internalType": "uint256",
          "name": "",
          "type": "uint256"
        }
      ],
      "name": "projects",
      "outputs": [
        {
          "internalType": "uint256",
          "name": "id",
          "type": "uint256"
        },
        {
          "internalType": "string",
          "name": "title",
          "type": "string"
        },
        {
          "internalType": "string",
          "name": "description",
          "type": "string"
        },
        {
          "internalType": "address payable",
          "name": "projectOwner",
          "type": "address"
        },
        {
          "internalType": "uint256",
          "name": "totalDonations",
          "type": "uint256"
        }
      ],
      "stateMutability": "view",
      "type": "function",
      "constant": true
    },
    {
      "inputs": [
        {
          "internalType": "string",
          "name": "_title",
          "type": "string"
        },
        {
          "internalType": "string",
          "name": "_description",
          "type": "string"
        }
      ],
      "name": "createProject",
      "outputs": [],
      "stateMutability": "nonpayable",
      "type": "function"
    },
    {
      "inputs": [
        {
          "internalType": "uint256",
          "name": "_projectId",
          "type": "uint256"
        }
      ],
      "name": "donate",
      "outputs": [],
      "stateMutability": "payable",
      "type": "function",
      "payable": true
    },
    {
      "inputs": [
        {
          "internalType": "uint256",
          "name": "_projectId",
          "type": "uint256"
        },
        {
          "internalType": "address",
          "name": "_donorAddress",
          "type": "address"
        }
      ],
      "name": "getDonor",
      "outputs": [
        {
          "internalType": "address",
          "name": "",
          "type": "address"
        },
        {
          "internalType": "uint256",
          "name": "",
          "type": "uint256"
        }
      ],
      "stateMutability": "view",
      "type": "function",
      "constant": true
    },
    {
      "inputs": [
        {
          "internalType": "uint256",
          "name": "_projectId",
          "type": "uint256"
        }
      ],
      "name": "getTotalDonations",
      "outputs": [
        {
          "internalType": "uint256",
          "name": "",
          "type": "uint256"
        }
      ],
      "stateMutability": "view",
      "type": "function",
      "constant": true
    }
  ],
  "bytecode": "0x608060405234801561001057600080fd5b50600060018190555061108b806100286000396000f3fe6080604052600436106100555760003560e01c8063107046bd1461005a57806336fbad261461009b5780636bd06204146100c6578063d0e5a743146100ef578063e38d87741461012d578063f14faf6f1461016a575b600080fd5b34801561006657600080fd5b50610081600480360381019061007c9190610808565b610186565b604051610092959493929190610915565b60405180910390f35b3480156100a757600080fd5b506100b06102ec565b6040516100bd9190610976565b60405180910390f35b3480156100d257600080fd5b506100ed60048036038101906100e89190610ac6565b6102f2565b005b3480156100fb57600080fd5b5061011660048036038101906101119190610b7c565b610399565b604051610124929190610bcb565b60405180910390f35b34801561013957600080fd5b50610154600480360381019061014f9190610808565b6104b7565b6040516101619190610976565b60405180910390f35b610184600480360381019061017f9190610808565b61051a565b005b60006020528060005260406000206000915090508060000154908060010180546101af90610c23565b80601f01602080910402602001604051908101604052809291908181526020018280546101db90610c23565b80156102285780601f106101fd57610100808354040283529160200191610228565b820191906000526020600020905b81548152906001019060200180831161020b57829003601f168201915b50505050509080600201805461023d90610c23565b80601f016020809104026020016040519081016040528092919081815260200182805461026990610c23565b80156102b65780601f1061028b576101008083540402835291602001916102b6565b820191906000526020600020905b81548152906001019060200180831161029957829003601f168201915b5050505050908060030160009054906101000a900473ffffffffffffffffffffffffffffffffffffffff16908060050154905085565b60015481565b6000806000600154815260200190815260200160002090506001548160000181905550828160010190816103269190610e00565b50818160020190816103389190610e00565b50338160030160006101000a81548173ffffffffffffffffffffffffffffffffffffffff021916908373ffffffffffffffffffffffffffffffffffffffff1602179055506001600081548092919061038f90610f01565b9190505550505050565b60008060015484106103e0576040517f08c379a00000000000000000000000000000000000000000000000000000000081526004016103d790610f95565b60405180910390fd5b60008085815260200190815260200160002060040160008473ffffffffffffffffffffffffffffffffffffffff1673ffffffffffffffffffffffffffffffffffffffff16815260200190815260200160002060000160009054906101000a900473ffffffffffffffffffffffffffffffffffffffff1660008086815260200190815260200160002060040160008573ffffffffffffffffffffffffffffffffffffffff1673ffffffffffffffffffffffffffffffffffffffff16815260200190815260200160002060010154915091509250929050565b600060015482106104fd576040517f08c379a00000000000000000000000000000000000000000000000000000000081526004016104f490610f95565b60405180910390fd5b600080838152602001908152602001600020600501549050919050565b600154811061055e576040517f08c379a000000000000000000000000000000000000000000000000000000000815260040161055590610f95565b60405180910390fd5b600073ffffffffffffffffffffffffffffffffffffffff1660008083815260200190815260200160002060040160003373ffffffffffffffffffffffffffffffffffffffff1673ffffffffffffffffffffffffffffffffffffffff16815260200190815260200160002060000160009054906101000a900473ffffffffffffffffffffffffffffffffffffffff1673ffffffffffffffffffffffffffffffffffffffff1614610642576040517f08c379a000000000000000000000000000000000000000000000000000000000815260040161063990611001565b60405180910390fd5b60008082815260200190815260200160002060030160009054906101000a900473ffffffffffffffffffffffffffffffffffffffff1673ffffffffffffffffffffffffffffffffffffffff166108fc349081150290604051600060405180830381858888f193505050501580156106bd573d6000803e3d6000fd5b5060405180604001604052803373ffffffffffffffffffffffffffffffffffffffff1681526020013481525060008083815260200190815260200160002060040160003373ffffffffffffffffffffffffffffffffffffffff1673ffffffffffffffffffffffffffffffffffffffff16815260200190815260200160002060008201518160000160006101000a81548173ffffffffffffffffffffffffffffffffffffffff021916908373ffffffffffffffffffffffffffffffffffffffff160217905550602082015181600101559050503460008083815260200190815260200160002060050160008282546107b49190611021565b9250508190555050565b6000604051905090565b600080fd5b600080fd5b6000819050919050565b6107e5816107d2565b81146107f057600080fd5b50565b600081359050610802816107dc565b92915050565b60006020828403121561081e5761081d6107c8565b5b600061082c848285016107f3565b91505092915050565b61083e816107d2565b82525050565b600081519050919050565b600082825260208201905092915050565b60005b8381101561087e578082015181840152602081019050610863565b60008484015250505050565b6000601f19601f8301169050919050565b60006108a682610844565b6108b0818561084f565b93506108c0818560208601610860565b6108c98161088a565b840191505092915050565b600073ffffffffffffffffffffffffffffffffffffffff82169050919050565b60006108ff826108d4565b9050919050565b61090f816108f4565b82525050565b600060a08201905061092a6000830188610835565b818103602083015261093c818761089b565b90508181036040830152610950818661089b565b905061095f6060830185610906565b61096c6080830184610835565b9695505050505050565b600060208201905061098b6000830184610835565b92915050565b600080fd5b600080fd5b7f4e487b7100000000000000000000000000000000000000000000000000000000600052604160045260246000fd5b6109d38261088a565b810181811067ffffffffffffffff821117156109f2576109f161099b565b5b80604052505050565b6000610a056107be565b9050610a1182826109ca565b919050565b600067ffffffffffffffff821115610a3157610a3061099b565b5b610a3a8261088a565b9050602081019050919050565b82818337600083830152505050565b6000610a69610a6484610a16565b6109fb565b905082815260208101848484011115610a8557610a84610996565b5b610a90848285610a47565b509392505050565b600082601f830112610aad57610aac610991565b5b8135610abd848260208601610a56565b91505092915050565b60008060408385031215610add57610adc6107c8565b5b600083013567ffffffffffffffff811115610afb57610afa6107cd565b5b610b0785828601610a98565b925050602083013567ffffffffffffffff811115610b2857610b276107cd565b5b610b3485828601610a98565b9150509250929050565b6000610b49826108d4565b9050919050565b610b5981610b3e565b8114610b6457600080fd5b50565b600081359050610b7681610b50565b92915050565b60008060408385031215610b9357610b926107c8565b5b6000610ba1858286016107f3565b9250506020610bb285828601610b67565b9150509250929050565b610bc581610b3e565b82525050565b6000604082019050610be06000830185610bbc565b610bed6020830184610835565b9392505050565b7f4e487b7100000000000000000000000000000000000000000000000000000000600052602260045260246000fd5b60006002820490506001821680610c3b57607f821691505b602082108103610c4e57610c4d610bf4565b5b50919050565b60008190508160005260206000209050919050565b60006020601f8301049050919050565b600082821b905092915050565b600060088302610cb67fffffffffffffffffffffffffffffffffffffffffffffffffffffffffffffffff82610c79565b610cc08683610c79565b95508019841693508086168417925050509392505050565b6000819050919050565b6000610cfd610cf8610cf3846107d2565b610cd8565b6107d2565b9050919050565b6000819050919050565b610d1783610ce2565b610d2b610d2382610d04565b848454610c86565b825550505050565b600090565b610d40610d33565b610d4b818484610d0e565b505050565b5b81811015610d6f57610d64600082610d38565b600181019050610d51565b5050565b601f821115610db457610d8581610c54565b610d8e84610c69565b81016020851015610d9d578190505b610db1610da985610c69565b830182610d50565b50505b505050565b600082821c905092915050565b6000610dd760001984600802610db9565b1980831691505092915050565b6000610df08383610dc6565b9150826002028217905092915050565b610e0982610844565b67ffffffffffffffff811115610e2257610e2161099b565b5b610e2c8254610c23565b610e37828285610d73565b600060209050601f831160018114610e6a5760008415610e58578287015190505b610e628582610de4565b865550610eca565b601f198416610e7886610c54565b60005b82811015610ea057848901518255600182019150602085019450602081019050610e7b565b86831015610ebd5784890151610eb9601f891682610dc6565b8355505b6001600288020188555050505b505050505050565b7f4e487b7100000000000000000000000000000000000000000000000000000000600052601160045260246000fd5b6000610f0c826107d2565b91507fffffffffffffffffffffffffffffffffffffffffffffffffffffffffffffffff8203610f3e57610f3d610ed2565b5b600182019050919050565b7f496e76616c69642070726f6a6563742069640000000000000000000000000000600082015250565b6000610f7f60128361084f565b9150610f8a82610f49565b602082019050919050565b60006020820190508181036000830152610fae81610f72565b9050919050565b7f446f6e6f722063616e206f6e6c7920646f6e617465206f6e6365000000000000600082015250565b6000610feb601a8361084f565b9150610ff682610fb5565b602082019050919050565b6000602082019050818103600083015261101a81610fde565b9050919050565b600061102c826107d2565b9150611037836107d2565b925082820190508082111561104f5761104e610ed2565b5b9291505056fea2646970667358221220c001bdcfef05724ec73316c20dc830c4191e0b656a8fd108a8ea448bc900af5664736f6c63430008130033",
  "immutableReferences": {},
  "source": "// SPDX-License-Identifier: MIT\r\n\r\npragma solidity ^0.8.8;\r\n\r\ncontract ProjectCreation {\r\n    struct Donor {\r\n        address donorAddress;\r\n        uint amountDonated;\r\n    }\r\n\r\n    struct Project {\r\n        uint id;\r\n        string title;\r\n        string description;\r\n        address payable projectOwner;\r\n        mapping(address => Donor) donors;\r\n        uint totalDonations;\r\n    }\r\n\r\n    mapping(uint => Project) public projects;\r\n    uint public projectCount;\r\n\r\n    constructor() {\r\n        projectCount = 0;\r\n    }\r\n\r\n    function createProject(string memory _title, string memory _description) external {\r\n        Project storage project = projects[projectCount];\r\n        project.id = projectCount;\r\n        project.title = _title;\r\n        project.description = _description;\r\n        project.projectOwner = payable(msg.sender);\r\n        projectCount++;\r\n    }\r\n\r\n    function donate(uint _projectId) external payable {\r\n        require(_projectId < projectCount, \"Invalid project id\");\r\n        require(projects[_projectId].donors[msg.sender].donorAddress == address(0), \"Donor can only donate once\");\r\n\r\n        // Transfer the funds to project owner directly\r\n        projects[_projectId].projectOwner.transfer(msg.value);\r\n\r\n        // Save the donor's information\r\n        projects[_projectId].donors[msg.sender] = Donor(msg.sender, msg.value);\r\n        \r\n        // Update total donations\r\n        projects[_projectId].totalDonations += msg.value;\r\n    }\r\n\r\n    function getDonor(uint _projectId, address _donorAddress) external view returns (address, uint) {\r\n        require(_projectId < projectCount, \"Invalid project id\");\r\n        return (projects[_projectId].donors[_donorAddress].donorAddress, projects[_projectId].donors[_donorAddress].amountDonated);\r\n    }\r\n\r\n    function getTotalDonations(uint _projectId) external view returns (uint) {\r\n        require(_projectId < projectCount, \"Invalid project id\");\r\n        return projects[_projectId].totalDonations;\r\n    }\r\n}\r\n",
  "sourcePath": "C:\\Users\\Cheddad\\Desktop\\Blockchain-solidity-Application-javascript\\contracts\\ProjectCreation.sol",
  "compiler": {
    "name": "solc",
    "version": "0.8.19+commit.7dd6d404.Emscripten.clang"
  },
  "schemaVersion": "3.4.14",
  "updatedAt": "2023-06-12T13:44:03.565Z",
  "networkType": "ethereum",
  "devdoc": {
    "kind": "dev",
    "methods": {},
    "version": 1
  },
  "userdoc": {
    "kind": "user",
    "methods": {},
    "version": 1
  }
}